:1000000012C02CC02BC03DC029C028C028C026C0AB
:1000100025C024C023C022C021C020C01FC01EC0D4
:100020001DC01CC01BC011241FBECFE5D4E0DEBF25
:10003000CDBF10E0A0E6B0E0E0EEF8E002C0059031
:100040000D92A239B107D9F720E0A2E9B0E001C0D2
:100050001D92A33CB207E1F7B2D340C4D1CF1F92A7
:100060000F920FB60F9211248F9382B3837082BBCD
:1000700085B38C7F85BB8F910F900FBE0F901F9023
:1000800018951F920F920FB60F9211242F933F9342
:100090004F935F938F939F93EF93FF93CF93DF9350
:1000A00000D0CDB7DEB78091B20080FF09C0E2EB8F
:1000B000F0E08E7F808381FF02C0AB9801C0AB9AD5
:1000C00088B7806188BF809195008F5F877080932B
:1000D00095002091950081E090E0AC0102C0440FB2
:1000E000551F2A95E2F79A012C7F298330919500BC
:1000F00025B302C0880F991F3A95E2F78370922FBB
:100100009873892B8A83E0919500F0E0EE0FFF1F32
:10011000ED59FF4F8081918141979BBD8ABD1DBCE8
:100120001CBC898182BB8A8185BB0F900F90DF91B7
:10013000CF91FF91EF919F918F915F914F913F915F
:100140002F910F900FBE0F901F9018959C015998FA
:100150009AB1977E9AB92130310559F038F02230A2
:10016000310551F02630310559F00DC089E189B9CA
:100170000FC08CE089B90CC0599A8CE089B908C0CD
:10018000599A19B805C0E1EBF0E080818460808362
:100190008AB188618AB908958D3627E0920714F0F4
:1001A0008CE697E08C3326EF920714F48CE396EFFD
:1001B000880F991F8059984E08958F929F92AF9201
:1001C000BF92CF92DF92EF92FF92CF9382B78F349C
:1001D00008F4B2C012BE8091B10084FF37C02091F4
:1001E00061003091620080E090E0FC01EE0FFF1FA3
:1001F000ED59FF4F31832083019688309105A9F78F
:10020000809161009091620080342FE1920738F074
:1002100010926000813AEFE09E0728F012C0813A08
:10022000FFE09F0720F421E02093600004C02091AC
:100230006000213031F40A9690936200809361004F
:1002400005C00A979093620080936100A3E7B0E035
:1002500080E090E09C01FC01EE0FFF1FED59FF4F85
:10026000608171814D915D916417750709F45FC0DC
:10027000FC01E956FF4FC081CC2309F458C0FC01B2
:10028000EE0FFF1FED59FF4F60817181FA01E61BF0
:10029000F70B6F0122F4CC24DD24CE1ADF0A0D2CDB
:1002A000000CEE08FF088C2E912CA12CB12C8C1484
:1002B0009D04AE04BF043CF0F901EE0FFF1FED59A1
:1002C000FF4F51834083F901EE0FFF1FED59FF4FA0
:1002D000608171814617570751F1F901EE0FFF1F39
:1002E000ED59FF4F0190F081E02D60E070E04E1B72
:1002F0005F0B61097109141615061606170664F4DA
:10030000220F331FF901ED59FF4F208131812C0F4E
:10031000311D318320830BC0220F331FF901ED59AA
:10032000FF4F208131812C1B3109318320830196BD
:100330008830910509F08ECFCF91FF90EF90DF903C
:10034000CF90BF90AF909F908F900895CF93DF9301
:100350005F9B99C0CCB1C337B1F4E0EAF0E080EB29
:1003600090E011921192E817F907D9F710929400D2
:1003700010929F0081E08093B000E1EBF0E080817B
:100380008F7B808306C0C03221F48091B10086FD4E
:100390007AC08091B000882309F475C0E1EBF0E0E9
:1003A00090819F7B9083E0919F00E83008F062C0CD
:1003B0009FE99C0F9A3140F090ED9C0F9A3020F00D
:1003C000CD3211F0CB3241F491E09E0F90939F001B
:1003D000F0E0ED54FF4FC083C03239F0CD3029F04A
:1003E000CA3019F0C33209F04EC090919F00E92F36
:1003F000F0E0ED54FF4F10828130A1F4992371F0A9
:10040000E3EBF0E0ABEBB0E09150892F90E08C543F
:100410009F4F21912D93E817F907D9F782E0809338
:10042000B00013C0D0919400D83078F481E08D0FE3
:100430008093940083EB90E007D2ED2FF0E0EE0F75
:10044000FF1FE056FF4F91838083E1EBF0E0808156
:100450008064808310929F00CD3021F0CA3011F06B
:10046000C33289F4E1EBF0E08081816080831092F7
:10047000B00009C010929F001092B000E1EBF0E0D4
:10048000808184608083DF91CF9108958091B10055
:1004900083FF0BC0E1EBF0E0877F8068808385E815
:1004A00090E090939300809392008091B10081FF3F
:1004B0000EC0E1EBF0E08D7F806880838091830047
:1004C0009091840001969093930080939200809184
:1004D000B10082FF0DC0E1EBF0E08B7F806880838C
:1004E0008091830090918400909393008093920078
:1004F0008091B100882304F5E0919200F09193007F
:100500008081882399F05D9B25C05E9AE0919200DE
:10051000F091930080818CB980919200909193002A
:10052000019690939300809392000895E1EBF0E0A0
:1005300080818F778083089585FF0CC05E9B0AC001
:10054000E1EBF0E080818F7D80838091960090E0E8
:10055000FDDD5E9A0895CF92DF92EF92FF920F93A6
:100560001F93CF93DF938091B10080FF1FC1E1EB18
:10057000F0E08E7F8F7E80838091BC00843729F4E9
:10058000808180618260808311C1813609F050C012
:100590008091BD00863791F4E0EAF0E0A7E9B0E091
:1005A00020EB30E0808132968D93E217F307D1F78C
:1005B000E1EBF0E0808182608083F8C00F2EF7E9E4
:1005C000CF2EF0E0DF2EF02D0F2EF0EAEF2EF0E030
:1005D000FF2EF02D03E710E0C0E0D0E0F60181919E
:1005E0006F0181110FC0F70180819181D5DDFE017E
:1005F000EE0FFF1FED59FF4F91838083F801918328
:10060000808307C0F70180819181C6DDF801918365
:1006100080832196F2E0EF0EF11C0E5F1F4FC83071
:10062000D105E1F6E1EBF0E0808182608083BEC01D
:10063000C0EDC80FC83018F5D0E000EA10E0F801AE
:1006400080819181A9DD9C01FE01EE0FFF1FED5815
:10065000FF4F91838083F8019281911107C0CC0FE5
:10066000DD1FCD59DF4F3983288303C0C956DF4FC3
:100670009883E1EBF0E080818260808397C08936C7
:10068000E9F48091BD00813609F08BC000EA10E0EA
:10069000C0E0D0E0F801819191918F017DDDBC0136
:1006A000CE01880F991FFAD02196C830D10591F755
:1006B000E1EBF0E080818260808378C0823681F453
:1006C0008091BD00823709F06CC08091A0008093BA
:1006D0009600E1EBF0E0808180628260808366C0FA
:1006E0008E3631F4E1EBF0E08081886080835EC07B
:1006F000843661F4E2EBF0E080818D7F816080835D
:10070000E1EBF0E080818260808350C0853661F447
:10071000E2EBF0E08081826081608083E1EBF0E0D9
:1007200080818260808342C08F36D9F58091A0009D
:10073000811102C0AC9801C0AC9A8091A2008823BC
:1007400011F0AD9A01C0AD98E4EAF0E06CEA70E017
:1007500082E090E0A1E0B0E020813296222359F0BF
:1007600048B39D01082E02C0220F331F0A94E2F7FE
:10077000242B28BB0CC038B3AD01082E02C0440F97
:10078000551F0A94E2F7242F2095232328BB0196B6
:10079000E617F70709F7E1EBF0E0808182608083DC
:1007A00005C0E1EBF0E0808184608083DF91CF9130
:1007B0001F910F91FF90EF90DF90CF9008951092CE
:1007C000B2001092B10080E090E063D0019681F019
:1007D000C0E0D0E08E01000F111FC8015AD0F8010F
:1007E000ED59FF4F918380832196C830D10591F751
:1007F00083E084BBA39A84B3806384BB8CE387BB10
:1008000018BA8EEF81BB15BA85B5886085BD85B5F0
:10081000866085BD81E08EBD89B7806989BF87E22A
:1008200083BD83B7846083BF12BE5E9A82E090E08E
:100830008DDC7894E1EBF0E080818E7F808386DD33
:100840008ADE24DEBADCFBCFFC0188279927E894F6
:1008500021912032E9F3293010F02E30C8F32B32E9
:1008600039F02D3231F4689403C00BD0820F911D02
:10087000219120532A30C8F31EF4909581959F4F03
:1008800008957AE0979F902D879F802D910D1124D8
:100890000895A8E1B0E042E050E005C012D0272F53
:1008A00011C0DC01CB01FC01E199FECF06C0FFBB0A
:1008B000EEBBE09A31960DB20D9241505040B8F720
:1008C0000895262FE199FECF9FBB8EBB2DBB0FB69F
:1008D000F894E29AE19A0FBE01960895F894FFCF3A
:1008E00001701770177017701770177017701770E6
:1008F00017701770177017701770177017701770C0
:100900001770178A0030320D0A004E41434B0D0A12
:020910000000E5
:00000001FF
